:100000000C9453000C94A7140C94D4140C947B00FF
:100010000C947B000C947B000C947B000C947B0074
:100020000C947B000C947B000C947B000C947B0064
:100030000C947B000C947B000C947B000C947B0054
:100040000C9401150C947B000C9491150C947B007E
:100050000C947B000C947B000C947B000C947B0034
:100060000C947B000C947B006C6162003132330095
:100070000102030405060708090A0B0C0D00000025
:100080000000000000000000000000000000000070
:100090000000000000000000000000000000000060
:1000A00000000000DA1611241FBECFEFD4E0DEBF3F
:1000B000CDBF11E0A0E0B1E0ECEBFFE202C00590A3
:1000C0000D92A236B107D9F714E0A2E6B1E001C063
:1000D0001D92AA3BB107E1F710E0C6EAD0E004C0E8
:1000E0002297FE010E94D817C43AD107C9F70E948F
:1000F0007D140C94DC170C940000FB01DC0102C0A1
:1001000005900D9241505040D8F70895FC0105909C
:100110000020E9F7809590958E0F9F1F0895FB01B1
:10012000DC0104C08D910190801921F441505040B0
:10013000C8F7881B990B0895FB01DC0102C00190F0
:100140000D9241505040D8F70895DC0101C06D93E5
:1001500041505040E0F708950E944915089590E0FD
:100160005EE34EE23FE32FEF5093690110926A0184
:1001700040936B012A98A9E6B1E0FD0180818EBD14
:100180000DB407FEFDCF8EB5819381E0EC36F80704
:10019000A9F72A9A30936901992311F08FE001C0E1
:1001A00080E880936A0120936B012A988C918EBD20
:1001B0000DB407FEFDCF8EB58D9381E0AC36B80748
:1001C000A9F72A9A913011F091E0CECF8EE3809377
:1001D000690110926A018AE280936B012A9820E0FB
:1001E00030E0F901E759FE4F80818EBD0DB407FE66
:1001F000FDCF8EB580832F5F3F4F2330310589F7C8
:100200002A9A9FE79093690110926A0110926B01FC
:100210002A9820E030E0F901E759FE4F80818EBD39
:100220000DB407FEFDCF8EB580832F5F3F4F233087
:10023000310589F72A9A80916A0184FFE3CF9FE60E
:100240009093690110926A0110926B012A9820E044
:1002500030E0F901E759FE4F80818EBD0DB407FEF5
:10026000FDCF8EB580832F5F3F4F2330310589F757
:100270002A9A80916A01882321F480916B01882356
:10028000F9F208958EE68093690110926A01109246
:100290006B012A98A9E6B1E0FD0180818EBD0DB405
:1002A00007FEFDCF8EB5819381E0EC36F807A9F704
:1002B0002A9A8DE2809369018FEF80936A0180937F
:1002C0006B01108211822A988C918EBD0DB407FEAD
:1002D000FDCF8EB58D9381E0AE36B807A9F72A9A87
:1002E0000895282F82E48093690110926A012A9868
:1002F000A9E6B1E0FD0180818EBD0DB407FEFDCF02
:100300008EB5819381E0EB36F807A9F72A9A81E050
:100310008093690130916A01662311F0922F01C028
:1003200090E0822F80958323982B90936B012093EC
:100330006A012A988C918EBD0DB407FEFDCF8EB553
:100340008D9381E0AC36B807A9F72A9A0895E8980A
:1003500081E080936E01089581E480936901109299
:100360006A0110926B012A98E9E6F1E080818EBD66
:100370000DB407FEFDCF8EB5819381E0EC36F80712
:10038000A9F72A9A21E090916B0180916A01982344
:1003900097FF15C02093690180E880936A012A982D
:1003A000339780818EBD0DB407FEFDCF8EB581934E
:1003B00081E0EB36F807A9F72A9A85E316C096FF85
:1003C0005FC02093690180E480936A012A98339783
:1003D00080818EBD0DB407FEFDCF8EB5819381E087
:1003E000EB36F807A9F72A9A83E3806480936901C2
:1003F00010926A0110926B012A98E9E6F1E080817F
:100400008EBD0DB407FEFDCF8EB5819381E0EC3635
:10041000F807A9F72A9A90916A0180E020916B0170
:1004200030E0282B392B3F70A0917401B0917501F9
:1004300080E88C932F5F3F4F2A9840E050E0FD0109
:10044000E40FF51F80818EBD0DB407FEFDCF8EB584
:1004500080834F5F5F4F4217530788F32A9A80EDDE
:10046000809369012A98809169018EBD0DB407FEC1
:10047000FDCF8EB5809369012A9A81E080936F0148
:1004800010926E01E89A0895DC0180EA8093690178
:1004900081E080936A0180936B0110926C0110924D
:1004A0006D012A98E9E6F1E080818EBD0DB407FE6A
:1004B000FDCF8EB5819381E0EE36F807A9F78AEA81
:1004C00016968C93169717968C93179783E0189629
:1004D0008C9318971B961C921B971A961C921A972E
:1004E00019961C9219972A9820E030E00CC0FD0163
:1004F000E20FF31F80818EBD0DB407FEFDCF8EB5D8
:1005000080832F5F3F4F2617370788F32A9A80ECA6
:10051000809369012A98809169018EBD0DB407FE10
:10052000FDCF8EB5809369012A9A0895809172015A
:10053000882319F420E030E006C010927201209167
:10054000760130917701C901089580937101089572
:100550008091680108959093750180937401709360
:10056000770160937601089582E691E00895CF9334
:10057000DF93EB01E0917401F09175019589868913
:1005800088839983DF01159686E00D900192815052
:10059000E1F78091740190917501DC011696FC01E0
:1005A0003B9686E001900D928150E1F72091740115
:1005B00030917501B901645F7F4F235E3F4F4881E1
:1005C0005981CB01B9010E949C00888199810C96C8
:1005D00099838883DF91CF9108950F931F938C01A6
:1005E00083E0D8018C938DE011968C93119712962D
:1005F0001C9212978091300213968C93F8013496D6
:1006000080E2DF011D928A95E9F740913002CF0127
:1006100068E670E050E00E947D00C801849660E7C3
:1006200070E044E350E00E947D001F910F91089517
:100630000F931F93CF93DF9380917101882399F0DB
:1006400080917301882379F460917601709177012C
:1006500080917401909175010E9444021092710181
:1006600081E08093730180916E01882311F00E94D4
:10067000AC0180916F01882309F47EC0E091740180
:10068000F09175018181823081F0833020F48130D6
:1006900009F070C007C0833009F441C0843009F00C
:1006A00069C03FC01092730165C09381913009F019
:1006B00061C082818C3029F18D3030F48830E9F1CD
:1006C0008A3009F057C01BC0833129F18431A1F170
:1006D000803109F04FC087818093620180858093CB
:1006E00063018185809364018285809365018385A0
:1006F0008093660184858093670186E01EC088E050
:100700001CC0A8E7B1E0379680E201900D928150BD
:10071000E1F787E012C0299A909368012BC084E02A
:100720000CC08281813030F1833018F0843011F5B3
:1007300007C029981092680183E0809370011AC065
:10074000938180E0248130E0282B392B2130310542
:1007500019F02530310521F42998109268010AC05A
:100760002230310519F02630310521F4299A81E033
:100770008093680110926F0190917001943009F498
:100780000FC2953040F4923091F0933008F0ADC133
:10079000992359F013C2973009F4FCC0983009F43A
:1007A00055C1963009F00AC244C082E005C2E0910A
:1007B0007401F091750180EB8083E0917401F091F8
:1007C00075019183E0917401F091750180E182835C
:1007D000E0917401F09175011382E0917401F09140
:1007E000750181E0848320917401309175012A980C
:1007F000C901FC019C012B5F3F4F80818EBD0DB470
:1008000007FEFDCF8EB58193E217F307B1F72A9A61
:10081000E0917401F091750180EC8083E0917401A6
:10082000F09175012A9880818EBD0DB407FEFDCF31
:10083000B3C180914401813041F0813020F0843097
:1008400008F0BCC141C088E0B7C1E0917401F091EB
:10085000750180EB8083E0917401F091750182E075
:100860008183E0917401F09175018AE08283809127
:1008700074019091750103960E94ED02209174011C
:10088000309175012A98C901FC019C01255A3F4FFE
:1008900080818EBD0DB407FEFDCF8EB58193E2172A
:1008A000F307B1F72A9AE0917401F091750180EC99
:1008B0008083E0917401F09175012A9880818EBD4A
:1008C0000DB407FEFDCF68C1E0917401F091750190
:1008D00080EB8083E0917401F091750182E0818367
:1008E000E0917401F09175018CE0828300917401B4
:1008F00010917501F8013396D80113961C928091DE
:10090000310281838091300282831382F80137960D
:1009100080E2EF0119928A95E9F740913002CF0108
:1009200068E670E050E00E947D00095D1F4F80E4A2
:10093000F80111928A95E9F740913102C8016CE6FD
:1009400070E050E00E947D002091740130917501AB
:100950002A98C901FC019C0129593F4F80818EBD15
:100960000DB407FEFDCF8EB58193E217F307B1F703
:100970002A9AE0917401F091750180EC8083E091F6
:100980007401F09175012A9880818EBD0DB407FE27
:10099000FDCF02C1E0917401F091750180EB80837D
:1009A000E0917401F091750182E08183E09174011E
:1009B000F091750188E082830091740110917501B6
:1009C000D8011396E8011B828091300211968C9316
:1009D0001197F801359680E2EF0119928A95E9F7AF
:1009E00011964C91CF0168E670E050E00E947D00C6
:1009F000D8019596E8E7F1E080E201900D928150F0
:100A0000E1F780917401909175012A989C01F90198
:100A10002B5B3F4F80818EBD0DB407FEFDCF8EB5A1
:100A20008193E217F307B1F72A9AE0917401F091EC
:100A3000750180EC8083E0917401F09175012A9832
:100A400080818EBD0DB407FEFDCFA6C0E09174017C
:100A5000F091750180EB8083E0917401F091750154
:100A600082E08183E0917401F091750184E18283D9
:100A7000E0917401F091750181E08383E09174014C
:100A8000F09175018AE08483E0917401F091750121
:100A900083E18583E0917401F091750116822091C4
:100AA0007401309175012A98C901FC019C01295FEC
:100AB0003F4F80818EBD0DB407FEFDCF8EB5819373
:100AC000E217F307B1F72A9AE0917401F0917501EA
:100AD00080EC8083E0917401F09175012A98808107
:100AE0008EBD0DB407FEFDCF57C0E0917401F091AB
:100AF0007501EF01239680EB8083A0917401B09182
:100B0000750182E011968C93A0917401B0917501EA
:100B100083E112968C93809144018383809130020B
:100B20008983359680E2DF011D928A95E9F740912D
:100B30003002CF0168E670E050E00E947D001BA209
:100B40001AA280914501813011F0823009F48CA302
:100B500080917401909175012A989C01F901275D9B
:100B60003F4F80818EBD0DB407FEFDCF8EB58193C2
:100B7000E217F307B1F72A9AE0917401F091750139
:100B800080EC8083E0917401F09175012A98808156
:100B90008EBD0DB407FEFDCF8EB580832A9A0BC0A3
:100BA000809174019091750166E771E00E94B7022F
:100BB00081E08093720185E080937001DF91CF9195
:100BC0001F910F91089584B18E6284B9249884E0B6
:100BD00085B980E58CBD81E08DBD8DB58EB5109257
:100BE0006E0110926F0110927001109268011092C4
:100BF0007101109272011092730180E193E0909361
:100C000075018093740180E991E09093770180935E
:100C100076010E94AF000E9442018FEF60E00E94C7
:100C2000710180EC61E00E94710188E690E00E9411
:100C30008600809330028CE690E00E9486008093CC
:100C4000310208950F931F936091D6027091D702DD
:100C500061157105F1F06733710518F480E193E0D7
:100C600013C006E413E09B01265330406091E1027B
:100C70007091E202C801A9010E949C006091D60215
:100C80007091D702C801C6970E94AB0281E00E9412
:100C9000A5021F910F9108950E94960208950F9347
:100CA0001F930E944C069093D7028093D602892B03
:100CB00081F100911C0310911D0380E098E00E94D7
:100CC0008C080817190769F481E00E94A608809132
:100CD000D6029091D702892B09F458C00E94E410E3
:100CE00015C000911C0310911D0386E098E00E943E
:100CF0008C080817190709F049C00E9495128091C5
:100D0000D6029091D702892B09F440C00E94220696
:100D10003DC088E991E00E946107892BB9F188E91B
:100D200091E00E944F0785EE92E09093E402809359
:100D3000E30282E00E94A6088091D6029091D70239
:100D4000892B21F00E94E4100E9422068091D60295
:100D50009091D702892B71F488EA91E00E94610793
:100D6000892B41F088EA91E00E944F070E947E1093
:100D70000E94220680EA91E00E946107892B31F0EF
:100D800080EA91E00E944F070E9451101F910F913D
:100D90000895CF92DF92EF92FF920F931F930E94DC
:100DA000B402FC0110810181F280E380D480C5800F
:100DB00088E991E044EF51E060E070E00E94830731
:100DC00080EA91E040E157E260E070E00E94830732
:100DD00088EA91E040E355E760E070E00E94830715
:100DE0000E945F081093B0010093B101F092B2012C
:100DF000E092B301D092B401C092B5010E943914BF
:100E000090913A0180E040913B0150E0482B592BF2
:100E10003091380120E08091390190E0822B932BB2
:100E200090930C0380930D0350930E0340930F0394
:100E300090913E0180E040913F0150E0482B592BBA
:100E400030913C0120E080913D0190E0822B932B7A
:100E50009093040380930503509306034093070384
:100E60009091420180E04091430150E0482B592B82
:100E70003091400120E08091410190E0822B932B42
:100E8000909308038093090350930A0340930B0344
:100E90001F910F91FF90EF90DF90CF900895FC018C
:100EA00080819181A281B3812481358146815781DE
:100EB000820F931FA41FB51F80839183A283B383E6
:100EC00008950F931F938C010E94AC00E0E0F0E0C6
:100ED000D8012D913D914D915C911397621B730B3D
:100EE000840B950B14962D913D914D915C91179724
:100EF000621773078407950710F0E1E0F0E0CF0177
:100F00001F910F9108950F931F938C01FC0144834F
:100F10005583668377830E94AC00F80160837183F8
:100F2000828393831F910F910895FC015381560F83
:100F30005093DD02272F33274281420F4093DC027A
:100F4000A181A093DB02E081E093DA02842F90E09C
:100F50008217930748F48A2F8F5F8093DB028823E0
:100F600019F4EF5FE093DA02852F90E07070861736
:100F7000970790F4842F8F5F8093DC02882361F4BD
:100F80008091DB028F5F8093DB02882329F48091BC
:100F9000DA028F5F8093DA020895EEE1F3E040E039
:100FA00050E0308120E08181B901680F711D460F4A
:100FB000571F4617570710F44F5F5F4F329673E085
:100FC000E133F70770F383E0E133F80751F49081E0
:100FD00080E0480F591F4817590718F44F5F5F4FBB
:100FE00006C04115510519F42FEF3FEF02C0342F11
:100FF000252FC901089590912103692F70E0645154
:1010000070403091200320E0620F731FAB01480F46
:10101000511DEAE2F3E0308120E08181D901A80F7F
:10102000B11D4A0F5B1F4A175B0710F44F5F5F4FFC
:101030003296B3E0E133FB0770F383E0E133F80766
:1010400049F4908180E0480F591F4817590710F460
:101050004F5F5F4F6F5C7C4FE2E3F3E00EC0308187
:1010600020E08181D901A80FB11D4A0F5B1F4A17EB
:101070005B0710F44F5F5F4F3296E617F70778F380
:10108000E617F70751F4908180E0480F591F481781
:10109000590718F44F5F5F4F06C04115510519F409
:1010A0002FEF3FEF02C0342F252FC901089586E0AE
:1010B0000E94FB07089581E10E94FB0708951092AA
:1010C0000303109202031092FE0280E094E09093DA
:1010D000BD018093BC011092A9041092A80481E084
:1010E0008093BE010895BC018091E3029091E402D7
:1010F00008960E949507E091E302F091E402809146
:10110000DA0280878091DB0281878091DC0282870E
:101110008091DD0283870895282F892F922F0895CB
:10112000AC01FB011616170684F46093A204F09339
:10113000A3042091D8023091D9028217930729F095
:10114000C901BA01AF010E949C0008950F931F933B
:10115000CF93DF93C091E302D091E402843009F48D
:1011600006C226E433E03093E2022093E10230939A
:10117000D9022093D802833059F4898D8F7083303F
:1011800009F03AC788899989892B09F035C789C040
:10119000823009F08AC08091BB018F5F8093BB01D0
:1011A000882399F48091BA018F5F8093BA018823D4
:1011B00061F48091B9018F5F8093B901882329F48C
:1011C0008091B8018F5F8093B8011092D70210927E
:1011D000D6021092A3041092A204298D273011F098
:1011E000253041F48A8D8F5F8A8F883709F004C7D4
:1011F000198E02C7222309F4FFC688899989892B91
:1012000009F44BC08A8D81508A8F8F5F09F0F4C634
:101210003B8D383029F02150223048F4353039F4F4
:10122000198E80E88093DE020E9463139BC53530DF
:1012300010F080E307C083E090E002C0880F991FA0
:101240003A95E2F78A8F8B8D8F5F8B8F898D90E037
:101250008F70907083309105D1F08430910544F403
:101260008130910509F464C3029709F0C5C60CC02A
:101270008630910509F409C58830910509F405C542
:10128000049709F0B9C601C510923F0354C384E026
:101290008093DE020E9463139AC52F70233009F0F9
:1012A000ABC688E08093DE0251C5853019F5E09128
:1012B000DF02F091E00284819581892B09F49CC6BC
:1012C0001092E4021092E302C9010C979093E2029B
:1012D0008093E1029093D9028093D8021092A304E4
:1012E0001092A2041092D7021092D60288E0809346
:1012F000DE023BC189010852104080911E038534F3
:1013000009F07AC69091200380E020912103AC017E
:10131000420F511D8091D6029091D70284179507F4
:1013200008F46AC65093D7024093D60280912403F2
:1013300090E08F739070892B09F05EC68091250331
:10134000882309F059C640910C0350910D038091F8
:101350004601909147014817590731F480910E03D7
:1013600090910F03892B59F180912703813199F4D2
:1013700020912E0330912F0380914A0190914B01CF
:101380002817390741F480913003909131038F5F22
:101390009F4F09F45BC080912E0390912F03841717
:1013A000950709F029C620913003309131038091CF
:1013B0000E0390910F032817390709F01DC60E94EC
:1013C000CD078F5F9F4F09F017C6809127038630A6
:1013D00009F433C18131D1F1813009F00DC680911A
:1013E0003203883009F008C610923203809134032A
:1013F00090913503FFEF873F9F0710F0099601C0DA
:101400000896909335038093340380912A0390913A
:101410002B0390932F0380932E0380912C039091A4
:101420002D03909331038093300380910C039091AE
:101430000D0390932B0380932A0380910E039091C8
:101440000F0390932D0380932C03DAC58091D6026D
:101450009091D7024C979093D7028093D6028AE35B
:1014600093E09093E2028093E1028091380390919F
:101470003903892B31F00E945B088F5F9F4F09F081
:10148000BBC584EA94E09093E0028093DF0246C0FB
:101490002481358121153105E1F18091340390914A
:1014A000350382179307A9F54681578141155105E8
:1014B00039F080913203909133038417950749F5F1
:1014C0002081318180914601909147012817390789
:1014D00021F482819381892B59F180914A01909165
:1014E0004B012817390729F4828193818F5F9F4F21
:1014F000F9F080912A0390912B038217930749F406
:1015000020912C0330912D03828193812817390774
:1015100079F07696F093E002E093DF02E091DF024B
:10152000F091E00284E0EA3BF80708F4B1CF64C52B
:10153000452B31F480913203909133039783868356
:101540001092E4021092E30282E08093DE028AE3CA
:1015500093E09093E2028093E1029093D90280930A
:10156000D8021092A3041092A2040E946413209146
:10157000A2043091A3042115310509F43DC5C90128
:101580004C969093D7028093D60290932003809339
:101590002103E091DF02F091E00280858093260331
:1015A00081E180932703C9010896909336038093C5
:1015B00037031092390310923803848195819093F8
:1015C0003303809332038681978190933503809310
:1015D000340380910C0390910D0390932B0380931F
:1015E0002A0380910E0390910F0390932D03809313
:1015F0002C038081918190932F0380932E0382810D
:101600009381909331038093300386E493E0909329
:10161000E2028093E1020E945B088095909590938E
:10162000390380933803892B09F0C3C48FEF9FEFF0
:101630009093390380933803BCC40E9457088F5F8E
:101640009F4F09F0D9C4C5EED2E0898D882329F1D6
:1016500020913403309135038C819D8128173907FF
:10166000E1F420913203309133038E819F8128175A
:10167000390799F420912A0330912B0388819981AD
:101680002817390751F420912C0330912D038A81BA
:101690009B812817390709F467C16D96F2E0C53EB2
:1016A000DF0799F290F280913F038F738230F1F45B
:1016B00080913403909135039093C1018093C001D0
:1016C0001092BE0141E00EC02091C0013091C101D5
:1016D00080910203909103032817390709F470C021
:1016E0004093BE018091BE01882371F380913F0336
:1016F00082FD82C484E1F80181A388E290E09093A6
:10170000D7028093D60280E580A39091390380911F
:101710003D03838F3091380380913C03828F368F55
:101720004091370380913B03818F458F2091360391
:101730002093BE0180913A03808F248F9F5F978F03
:10174000992361F4832F8F5F868F882339F4842F48
:101750008F5F858F882311F42F5F248F20913203B0
:10176000309133033093C1012093C0018091340341
:1017700090913503F801958B848B378B268B809164
:101780002A0390912B0390932F0380932E03809133
:101790002C0390912D03909331038093300380911B
:1017A0000C0390910D0390932B0380932A03809157
:1017B0000E0390910F0390932D0380932C03DEC3AF
:1017C0001092BE01C0E0D0E021E014C08091FE0282
:1017D000882319F4C5EED2E014C0873049F420976D
:1017E00029F09091FF028A8D891710F4C5EED2E09E
:1017F0002093BE018091BE01882341F3209709F414
:10180000FBC3D093E402C093E30283E08A8F888F06
:101810001E8A84E08F8B1B8E809134039091350358
:101820009D838C8380913203909133039F838E83B9
:1018300080912A0390912B039983888380912C03B4
:1018400090912D039B838A8381E0898F8091B801D9
:101850008C878091B9018D878091BA018E878091A4
:10186000BB018F8781E090E0998B888B8091390351
:101870008B87809138038A8780913703898780918D
:101880003603888781E090E00E94730880913E03D0
:1018900090E0807F9070813591050CF449C01092E2
:1018A000BE0134C0F901E05FFC4F86A98093BF01FF
:1018B0008823F1F1813021F44F5F4093BE0126C0AF
:1018C0008230C1F487A98430A9F430AD20E081AD25
:1018D00090E0822B932B9093C1018093C001F1E0A3
:1018E0008A349F0710F089E491E09B8B8A8B9D8B53
:1018F0008C8B1EC09091BE01E92FF0E0E05FFC4FA1
:1019000087A98823A9F0890F8093BE014091BE0169
:10191000242F30E080913E0382958F7090E00597F0
:10192000880F991F880F991F281739070CF4BACF11
:1019300080E180933F0380913F03826080933F0367
:1019400082E08093460384E08093470381E08093A4
:10195000480389E4809349038CE290E09093D70296
:101960008093D60280E6B7C2D093E402C093E3022C
:101970001092DE0280913F03482F50E082FF03C0A7
:10198000198E80E251C280913E0382958F70880F3C
:10199000880F8093BE012091D6023091D702245146
:1019A0003040281B31093093D7022093D602898D0D
:1019B0008F70823029F44F7350704231510509F114
:1019C000232B39F480913F0390E083709070892B32
:1019D000C1F0909136038885981709F072C29091F2
:1019E00037038985981709F06CC2909138038A856E
:1019F000981709F066C2909139038B85981709F002
:101A000060C280913F0384FF51C068897989611564
:101A1000710509F44BC0CE010C960E9495072091E8
:101A20003A038091DA02281709F040C090913B03F5
:101A30008091DB029817D1F590913C038091DC02F4
:101A40009817A1F590913D038091DD02981771F5EB
:101A50002C878091DB028D878091DC028E878091BC
:101A6000DD028F878B8D8823D1F42E89988D8A8D06
:101A7000981B822F869586958695981B392F320F55
:101A80003E8B8F89282F26952695821B97FD919551
:101A9000890F8F8B369536953695830F888F81E029
:101AA0008093DE02888D8A8F198A188A898D282F63
:101AB00030E0C9018F7090708430910509F4B9C18C
:101AC000853091055CF48230910591F18330910568
:101AD0000CF0B1C0019709F08FC210C0863091059B
:101AE00009F4E7C1863091050CF4C3C18730910534
:101AF00009F4E7C1089709F07FC290C18091DE0226
:101B000080FF7AC283E0898F80E48093DE02198AA5
:101B1000188A2091D6023091D7022115310509F497
:101B200011C182E48093DE02C9010E9473080AC1D8
:101B30008091DE0280FF74C080913F038F738231F9
:101B400009F06EC080913E0390E0807F90708135F7
:101B500091050CF449C01092BE0134C0F901E05F58
:101B6000FC4F86A98093BF018823F1F1813021F4D5
:101B70004F5F4093BE0126C08230C1F487A98430F4
:101B8000A9F430AD20E081AD90E0822B932B9093AF
:101B9000C1018093C00121E08A34920710F089E4EA
:101BA00091E09B8B8A8B9D8B8C8B1EC09091BE018C
:101BB000E92FF0E0E05FFC4F87A98823A9F0890FA7
:101BC0008093BE014091BE01242F30E080913E03FE
:101BD00082958F7090E00597880F991F880F991F45
:101BE000281739070CF4BACF83E0898F8091360328
:101BF0008887809137038987809138038A8780910D
:101C000039038B8781E090E00E94730882E480931F
:101C1000DE02198A188A1092D7021092D60292C058
:101C200080E28093DE020E946313E091E302F09170
:101C3000E402118E5BCD80913F0380FF2AC024FD1A
:101C400028C088899989892B09F0D6C18091D6024C
:101C50009091D70201960E9473082091DE02822F94
:101C600080618093DE028091D6029091D702892B09
:101C700019F022612093DE020E94631381E090E05C
:101C8000998B888B88E0898F1B8E81E180933F033D
:101C90001BC185FF21C060914403362F20E0409195
:101CA000450350E0242B352B8091E1029091E20214
:101CB000820F931F9093E2028093E102962F80E0BF
:101CC000842B952B2091D6023091D702281B390BFB
:101CD0003093D7022093D6022091D6023091D702BA
:101CE0002115310559F0898D84FD08C08091DE02EF
:101CF00082608093DE02C9010E94730890914003C4
:101D000080E020914103820F911D9093C101809347
:101D1000C0012C893D892817390710F0892B21F43F
:101D20003093C1012093C0018091C0019091C10105
:101D30009B8B8A8B8091DE0290E083709070892B60
:101D400009F45AC11092A3041092A2040E946313D2
:101D50008091DE02282F85FF07C01092A304109205
:101D6000A204198E84E192CF84FF0AC01092A304CA
:101D70001092A20481E090E0998B888B84E083CF5D
:101D80008091A2049091A304892B01F120FF02C04D
:101D9000198A188A888999890097A1F42A893B8928
:101DA0008091A2049091A3042817390720F430935E
:101DB000A3042093A2048091A2049091A304998B80
:101DC000888B04C09093A3048093A2041B8E8091FF
:101DD000D8029091D9029093E2028093E10280911F
:101DE000A2049091A304892B59F0888999890097BE
:101DF00039F088969093D7028093D60288E10BC081
:101E00008091DE0281FFF8C088E290E09093D702D3
:101E10008093D60280E180933F035CC08091DE0214
:101E200080FFEAC0198E80E18093DE020E94631376
:101E3000E3C08091D6029091D702009711F00E94E2
:101E4000730880913F039091DE0280FF0BC090FFEA
:101E500006C087E0898F1A8E198A188A19C086E011
:101E6000898F16C090FF1EC085E0898F198A188A55
:101E7000C3C08091D6029091D702009711F00E94C2
:101E8000730880913F0380FF0DC087E0898F1A8E11
:101E900081E090E00E94730880E18093DE020E945E
:101EA00063130FC08091D6029091D702892B49F419
:101EB000A3C08091DE0280FF9FC087E0898F1A8EC9
:101EC0009BC080E1F80181A388E290E09093D70263
:101ED0008093D60280E580933E03888580933A0301
:101EE000898580933B038A8580933C038B8580930F
:101EF0003D038C85809336038D85809337038E85D3
:101F0000809338038F858093390386E0809327037D
:101F10008C819D8190933303809332038E819F81C6
:101F2000909335038093340380910C0390910D03BB
:101F300090932B0380932A0380910E0390910F03BB
:101F400090932D0380932C038881998190932F0384
:101F500080932E038A819B81909331038093300379
:101F6000898D84FF05C0109241031092400306C082
:101F700081E08093400389E48093410380E480936F
:101F800026038091D702809320038091D60280930C
:101F900021031092450310924403109243031092C0
:101FA00042030E9457088095909590934303809335
:101FB000420385E480931E0310921F0310922503B1
:101FC000109224038091B6019091B70101969093ED
:101FD000B7018093B601909322038093230310925C
:101FE0002903109228030E94CD0780959095909325
:101FF00029038093280304C01092D7021092D602BE
:102000001092DE02DF91CF911F910F910895FC0194
:102010004091A8045091A9048091BC019091BD0108
:102020000196ADE780309A0710F080E090E1382FFC
:10203000292F42175307A1F38093BC019093BD0150
:10204000452B69F41092BE019093A8048093A904D3
:102050007093AB046093AA04309781F406C081E0CA
:102060008093BE0120E030E01AC01092A4041092C8
:10207000A5041092A6041092A7040CC0808191813F
:102080009093A5048093A404828193819093A704E4
:102090008093A60480E48093AC0424EA34E0C90170
:1020A0000895809120028F5F8093200210921E027B
:1020B0004BE01FC0249FF0011124EE53FE4F82819C
:1020C000938120813181822B932B892B69F0809120
:1020D000200290E02285821B91098837910524F027
:1020E000108211821282138280911E028F5F809370
:1020F0001E0220911E022830E8F2089580E193E04C
:102100006FEF70E046E050E00E94A500A0E3B3E06E
:10211000E0EBF1E086E001900D928150E1F7A6E15D
:10212000B3E0E0EBF1E086E001900D928150E1F741
:10213000A6E2B3E0E0EBF1E086E001900D92815081
:10214000E1F720910C0330910D0330933703209376
:10215000360380910E0390910F039093390380937F
:10216000380330932D0320932C0390932F038093F7
:102170002E0380E092E0909325038093240380E077
:1021800091E090931F0380931E0388E090E090936A
:1021900021038093200386E08093220384E08093D0
:1021A000230388E096E090931D0380931C0386E44C
:1021B00093E09093E2028093E1028AE290E09093B0
:1021C000D7028093D602089540912E0350912F0399
:1021D00080914E0190914F014817590789F48091E1
:1021E0003003909131038F5F9F4F51F4A0E1B3E032
:1021F000E2E5F1E086E001900D928150E1F7CFC079
:1022000080910C0390910D0384279527209108035A
:102210003091090382239323892B91F46091300339
:102220007091310380910E0390910F0386279727B9
:1022300020910A0330910B0382239323892B89F089
:10224000809104039091050390931B0280931A02DE
:10225000809106039091070390931D0280931C02C6
:1022600008C050931B0240931A0270931D026093A2
:102270001C0210921E0260911A0270911B02409182
:102280001C0250911D02E0E0F0E020E03BE013C0B2
:10229000239FF0011124EE53FE4F80819181681736
:1022A000790741F4828193814817590719F42093E3
:1022B0001E026DC02F5F283058F320931E02283075
:1022C00009F065C080E193E06FEF70E046E050E018
:1022D0000E94A500E0E3F3E086E0DF011D928A950D
:1022E000E9F77A97A0EBB1E086E00D90019281507A
:1022F000E1F7A6E2B3E0E0EBF1E086E001900D92B9
:102300008150E1F780911A0290911B02909337035C
:102310008093360380911C0290911D0290933903A3
:102320008093380380910C0390910D0390932D03BB
:1023300080932C0380910E0390910F0390932F03B1
:1023400080932E0380E091E09093250380932403F3
:1023500090931F0380931E0388E090E090932103E5
:102360008093200386E08093220384E080932303FC
:1023700088E096E090931D0380931C0386E493E02D
:102380009093E2028093E1028AE290E01CC0A0E117
:10239000B3E0349686E001900D928150E1F7A6E11A
:1023A000B3E0E0EBF1E086E001900D928150E1F7BF
:1023B00088E090E090931D0380931C038091D602E7
:1023C0009091D7020E969093D7028093D6020895EB
:1023D000DF92EF92FF920F931F93CF93DF93DC0175
:1023E000062FD72E10921E02E0E0F0E060E01BE026
:1023F0002BC0619FF0011124EE53FE4F40815181AB
:102400004115510501F12281338121153105D9F0A2
:102410008D919C91119784179507A9F412968D912F
:102420009C9113978217930771F460931E02EF013A
:102430002496802F9D2D9C01D90186E00D90099254
:102440008150E1F767C06F5F683098F210921E020A
:1024500020E03BE011C0239FF0011124EE53FE4F1A
:1024600080819181892B39F482819381892B19F4A0
:1024700020931E023CC02F5F283068F320931E0279
:102480002830A9F51092210210921F02109120020B
:10249000C12FD0E060E070E040E08BE0E82EF12C4E
:1024A00018C0842F90E08E9DF0018F9DF00D9E9DB1
:1024B000F00D1124EE53FE4F52859E01251B31096C
:1024C000872F90E0821793071CF4712F751B642FE0
:1024D0004F5F483030F360931F0270932102609386
:1024E0001E028BE0689FF0011124EE53FE4F8D9188
:1024F0009D910D90BC91A02DEF0189939993A99383
:10250000B993202F3D2DC901DC0186E00D90099281
:102510008150E1F7809120028287DF91CF911F9156
:102520000F91FF90EF90DF900895CF93DF9380910C
:10253000D6029091D7028A9728F41092D70210926F
:10254000D602A6C01092D7021092D602C0E1D3E004
:10255000809124039091250321E08030920729F097
:102560008050924009F094C076C02091360330919B
:10257000370380910C0390910D032817390709F058
:1025800087C0209138033091390380910E039091D8
:102590000F032817390709F07BC0CE014C96BE0106
:1025A0006A5E7F4F0E94E81180E092E090932503DD
:1025B00080932403DE019096FE01769686E00190DA
:1025C0000D928150E1F7A6E2B3E0E0EBF1E086E0A6
:1025D00001900D928150E1F7A6E1B3E0E0EBF1E06C
:1025E00086E001900D928150E1F7E0E1F3E0DF0138
:1025F000909686E00D9001928150E1F780912C0336
:1026000090912D03909337038093360380912E038E
:1026100090912F03909339038093380380910C039A
:1026200090910D0390932D0380932C0380910E03C2
:1026300090910F0390932F0380932E0388E096E0F0
:1026400090931D0380931C038AE290E09093D7023D
:102650008093D6021DC020913603309137038091BC
:102660000C0390910D032817390791F4209138033A
:102670003091390380910E0390910F032817390789
:1026800039F4CE014C96BE016A5E7F4F0E94E8117C
:10269000DF91CF9108950E944F060E94180308957C
:1026A0000E94E30580E067EA71E040E050E00E94AC
:1026B000841402C00E9418030E94A8028130D1F73E
:1026C0000E94C90608950895EF92FF920F931F93F9
:1026D000DF93CF93CDB7DEB7A2970FB6F894DEBFE6
:1026E0000FBECDBF80912302909124028B369105BD
:1026F00081F08637910509F452C0892B09F0A1C0F9
:1027000081E0809325028BE690E0909324028093F1
:1027100023021091DE0211FF9FC0F090E102E090D1
:10272000E2028F2D9E2D60E071E045E050E00E94B6
:102730008F00009709F08AC082E0809325021D7FF8
:102740001093DE02DE011896E6E0F1E08BE10190E5
:102750000D928150E1F78E01085F1F4FF801019043
:102760000020E9F73197E01BF10B8F2D9E2DB8016A
:10277000AF010E949C00F80101900020E9F7319719
:10278000E01BF10B8091E1029091E202BF010E94F7
:10279000900886E790E09093240280932302909122
:1027A000DE0291FF59C083E0809325029D7F9093C4
:1027B000DE02DE011196E1E2F1E087E001900D9288
:1027C0008150E1F74091E1025091E202E6E2F2E04D
:1027D000CA01DC0101C081936A2F641B8C918A308D
:1027E00029F0119692E0EF32F907A9F7062F112789
:1027F00007FD1095F801ED5DFD4F8AE08383DA0156
:10280000FE01319686E001900D928150E1F7209112
:10281000E1023091E2022A5F3F4FF801319646E231
:1028200052E0C901BA01AF010E949C00095F1F4F2D
:102830008091E1029091E202B8010E94900810920A
:102840002502109224021092230206C080912502D4
:10285000823009F058CF76CFA2960FB6F894DEBF3B
:102860000FBECDBFCF91DF911F910F91FF90EF90E1
:102870000895DF93CF9300D000D0CDB7DEB780ECC2
:1028800098EA9A83898381E094E69C838B83CE01C6
:10289000019660E070E00E940710FC01009721F0B3
:1028A00080E398E39583848310922502109224029A
:1028B000109223020F900F900F900F90CF91DF9105
:1028C000089582E292E00E944B1308950F931F93A4
:1028D00082E292E00E94501303EC12E0C80140E84B
:1028E00055E260E070E00E94CE15C80168E271E038
:1028F0000E944B171F910F9108950E9457150E9437
:1029000066140E946114FDCF823000F5E82FF0E0DC
:10291000EE0FFF1FEE5CFD4F71836083882319F07B
:102920008130A1F408C0809169008C7F842B809352
:102930006900E89A089580916900440F551F440F7B
:10294000551F837F842B80936900E99A08951F9215
:102950000F920FB60F9211242F933F934F935F93D3
:102960006F937F938F939F93AF93BF93EF93FF9357
:102970008091320290913302892B29F0E09132024A
:10298000F09133020995FF91EF91BF91AF919F9123
:102990008F917F916F915F914F913F912F910F9008
:1029A0000FBE0F901F9018951F920F920FB60F92A7
:1029B00011242F933F934F935F936F937F938F9344
:1029C0009F93AF93BF93EF93FF93809134029091C5
:1029D0003502892B29F0E0913402F09135020995F6
:1029E000FF91EF91BF91AF919F918F917F916F91E7
:1029F0005F914F913F912F910F900FBE0F901F90BD
:102A000018951F920F920FB60F9211242F933F9398
:102A10008F939F93AF93BF9380913A0290913B0223
:102A2000A0913C02B0913D0230913E020196A11D61
:102A3000B11D232F2D5F2D3720F02D570196A11D9D
:102A4000B11D20933E0280933A0290933B02A093E3
:102A50003C02B0933D028091360290913702A091E2
:102A60003802B09139020196A11DB11D8093360242
:102A700090933702A0933802B0933902BF91AF917F
:102A80009F918F913F912F910F900FBE0F901F90AC
:102A900018958FB7F89420913A0230913B024091FB
:102AA0003C0250913D028FBFB901CA01089578944C
:102AB00084B5826084BD84B5816084BD85B5826043
:102AC00085BD85B5816085BDEEE6F0E080818160E1
:102AD0008083E1E8F0E08081826080838081816092
:102AE0008083E0E8F0E0808181608083E1EBF0E0CA
:102AF000808184608083E0EBF0E08081816080836E
:102B0000EAE7F0E080818460808380818260808356
:102B10008081816080838081806880831092C10081
:102B200008951F920F920FB60F9211242F933F9387
:102B30004F935F936F937F938F939F93AF93BF93C5
:102B4000EF93FF934091C600E091BF02F091C00265
:102B5000CF01019660E870E00E9472179C0180919D
:102B6000C1029091C2022817390739F0E15CFD4F8C
:102B700040833093C0022093BF02FF91EF91BF9139
:102B8000AF919F918F917F916F915F914F913F9105
:102B90002F910F900FBE0F901F9018955F926F921C
:102BA0007F928F929F92AF92BF92CF92DF92EF92DD
:102BB000FF920F931F93CF93DF93EC013A014B01E8
:102BC000413482E458078FE0680780E078070CF012
:102BD0007FC060E874E88EE190E0A40193010E9458
:102BE000A7172150304040405040CA01B90122E0AF
:102BF00030E040E050E00E94A71759016A01A601A9
:102C00009501209530954095509594E0220F331F03
:102C1000441F551F9A95D1F760E074E284EF90E06D
:102C20000E94A717CA01B9012FEF30E040E050E041
:102C30000E945317A40193010E94A717C901815054
:102C40009F4F181619061CF4522E5A9403C055248F
:102C50005394521A60E079E08DE390E0A40193016F
:102C60000E94A7172150304040405040CA01B9018E
:102C700022E030E040E050E00E94A7172095309518
:102C80004095509583E0220F331F441F551F8A95AE
:102C9000D1F760E074E284EF90E00E94A717CA01C8
:102CA000B9012FEF30E040E050E00E945317A4013B
:102CB00093010E94A717C90181509F4F181619064A
:102CC0001CF4822F815002C081E0821B851500F523
:102CD000E885F98581E090E00A8802C0880F991F95
:102CE0000A94E2F7808360E079E08DE390E0A4014C
:102CF00093010E94A7172150304040405040CA0124
:102D0000B90122E030E040E050E00E94A71704C083
:102D1000E885F98510829501EC81FD813083EE8193
:102D2000FF812083EA85FB85208141E050E0CA01D4
:102D30000E8402C0880F991F0A94E2F7282B208383
:102D4000EA85FB852081CA010F8402C0880F991F84
:102D50000A94E2F7282B2083EA85FB858081088886
:102D600002C0440F551F0A94E2F7842B8083DF9141
:102D7000CF911F910F91FF90EF90DF90CF90BF9078
:102D8000AF909F908F907F906F905F900895FC011F
:102D9000A085B18521898C9190E0022E02C0959585
:102DA00087950A94E2F780FFF6CF0484F585E02D3D
:102DB000608308958CE591E09093C4028093C302F0
:102DC0008FE392E09093C6028093C50285EC90E079
:102DD0009093C8028093C70284EC90E09093CA025B
:102DE0008093C90280EC90E09093CC028093CB0258
:102DF00081EC90E09093CE028093CD0286EC90E03F
:102E00009093D0028093CF0284E08093D10283E03C
:102E10008093D20287E08093D30285E08093D4022E
:102E200081E08093D50208950F931F93CF93DF9392
:102E30008C01EB0109C02196D801ED91FC91019024
:102E4000F081E02DC801099568816623A1F7DF9123
:102E5000CF911F910F910895EF92FF920F931F93BF
:102E6000CF93DF938C017B01EA010CC0D7016D91F8
:102E70007D01D801ED91FC910190F081E02DC80118
:102E800009952197209791F7DF91CF911F910F918D
:102E9000FF90EF900895DC01ED91FC910280F381A9
:102EA000E02D09950895629FD001739FF001829FE4
:102EB000E00DF11D649FE00DF11D929FF00D839FC9
:102EC000F00D749FF00D659FF00D9927729FB00D66
:102ED000E11DF91F639FB00DE11DF91FBD01CF0179
:102EE0001124089597FB092E07260AD077FD04D0F8
:102EF00049D006D000201AF4709561957F4F08954F
:102F0000F6F7909581959F4F0895A1E21A2EAA1B7E
:102F1000BB1BFD010DC0AA1FBB1FEE1FFF1FA21789
:102F2000B307E407F50720F0A21BB30BE40BF50B86
:102F3000661F771F881F991F1A9469F7609570950F
:102F4000809590959B01AC01BD01CF01089597FB41
:102F5000092E05260ED057FD04D0D7DF0AD0001C5D
:102F600038F450954095309521953F4F4F4F5F4F26
:102F70000895F6F790958095709561957F4F8F4FE6
:102F80009F4F0895AA1BBB1B51E107C0AA1FBB1F7F
:102F9000A617B70710F0A61BB70B881F991F5A95E5
:102FA000A9F780959095BC01CD010895EE0FFF1F04
:0C2FB0000590F491E02D0994F894FFCFF7
:102FBC0048656C6C6F0048656C6C6F2E20576861AF
:102FCC007420697320796F7572206E616D653F0A8C
:102FDC000048656C6C6F2000554450417070205750
:102FEC0069536869656C6400C0A80102C0A801013E
:102FFC00FFFFFF00030200000000FFFFFFFFFFFFC9
:10300C00FFFFFFFFFFFFFFFF00000000C7161417B4
:02301C002C176F
:00000001FF
